{
  "contractName": "GreenLedger",
  "abi": [
    {
      "inputs": [
        {
          "internalType": "string",
          "name": "id",
          "type": "string"
        },
        {
          "internalType": "string",
          "name": "item",
          "type": "string"
        },
        {
          "internalType": "string",
          "name": "suggestion",
          "type": "string"
        },
        {
          "internalType": "string",
          "name": "action_with_reason",
          "type": "string"
        },
        {
          "internalType": "string",
          "name": "result",
          "type": "string"
        },
        {
          "internalType": "string",
          "name": "store",
          "type": "string"
        },
        {
          "internalType": "string",
          "name": "timestamp",
          "type": "string"
        }
      ],
      "name": "addLog",
      "outputs": [],
      "stateMutability": "nonpayable",
      "type": "function"
    },
    {
      "inputs": [
        {
          "internalType": "string",
          "name": "id",
          "type": "string"
        }
      ],
      "name": "getLog",
      "outputs": [
        {
          "internalType": "string",
          "name": "",
          "type": "string"
        },
        {
          "internalType": "string",
          "name": "",
          "type": "string"
        },
        {
          "internalType": "string",
          "name": "",
          "type": "string"
        },
        {
          "internalType": "string",
          "name": "",
          "type": "string"
        },
        {
          "internalType": "string",
          "name": "",
          "type": "string"
        },
        {
          "internalType": "string",
          "name": "",
          "type": "string"
        }
      ],
      "stateMutability": "view",
      "type": "function",
      "constant": true
    },
    {
      "inputs": [],
      "name": "getAllLogIds",
      "outputs": [
        {
          "internalType": "string[]",
          "name": "",
          "type": "string[]"
        }
      ],
      "stateMutability": "view",
      "type": "function",
      "constant": true
    }
  ],
  "bytecode": "0x608060405234801561000f575f80fd5b50610f9e8061001d5f395ff3fe608060405234801561000f575f80fd5b506004361061003f575f3560e01c80631553fdca1461004357806333363d331461005f578063369c487b1461007d575b5f80fd5b61005d60048036038101906100589190610810565b6100b2565b005b610067610229565b6040516100749190610aa6565b60405180910390f35b61009760048036038101906100929190610ac6565b6102fd565b6040516100a996959493929190610b55565b60405180910390f35b5f80886040516100c29190610c18565b90815260200160405180910390205f0180546100dd90610c5b565b90501461011f576040517f08c379a000000000000000000000000000000000000000000000000000000000815260040161011690610cd5565b60405180910390fd5b6040518060c00160405280878152602001868152602001858152602001848152602001838152602001828152505f8860405161015b9190610c18565b90815260200160405180910390205f820151815f01908161017c9190610e99565b5060208201518160010190816101929190610e99565b5060408201518160020190816101a89190610e99565b5060608201518160030190816101be9190610e99565b5060808201518160040190816101d49190610e99565b5060a08201518160050190816101ea9190610e99565b50905050600187908060018154018082558091505060019003905f5260205f20015f90919091909150908161021f9190610e99565b5050505050505050565b60606001805480602002602001604051908101604052809291908181526020015f905b828210156102f4578382905f5260205f2001805461026990610c5b565b80601f016020809104026020016040519081016040528092919081815260200182805461029590610c5b565b80156102e05780601f106102b7576101008083540402835291602001916102e0565b820191905f5260205f20905b8154815290600101906020018083116102c357829003601f168201915b50505050508152602001906001019061024c565b50505050905090565b6060806060806060805f80886040516103169190610c18565b90815260200160405180910390206040518060c00160405290815f8201805461033e90610c5b565b80601f016020809104026020016040519081016040528092919081815260200182805461036a90610c5b565b80156103b55780601f1061038c576101008083540402835291602001916103b5565b820191905f5260205f20905b81548152906001019060200180831161039857829003601f168201915b505050505081526020016001820180546103ce90610c5b565b80601f01602080910402602001604051908101604052809291908181526020018280546103fa90610c5b565b80156104455780601f1061041c57610100808354040283529160200191610445565b820191905f5260205f20905b81548152906001019060200180831161042857829003601f168201915b5050505050815260200160028201805461045e90610c5b565b80601f016020809104026020016040519081016040528092919081815260200182805461048a90610c5b565b80156104d55780601f106104ac576101008083540402835291602001916104d5565b820191905f5260205f20905b8154815290600101906020018083116104b857829003601f168201915b505050505081526020016003820180546104ee90610c5b565b80601f016020809104026020016040519081016040528092919081815260200182805461051a90610c5b565b80156105655780601f1061053c57610100808354040283529160200191610565565b820191905f5260205f20905b81548152906001019060200180831161054857829003601f168201915b5050505050815260200160048201805461057e90610c5b565b80601f01602080910402602001604051908101604052809291908181526020018280546105aa90610c5b565b80156105f55780601f106105cc576101008083540402835291602001916105f5565b820191905f5260205f20905b8154815290600101906020018083116105d857829003601f168201915b5050505050815260200160058201805461060e90610c5b565b80601f016020809104026020016040519081016040528092919081815260200182805461063a90610c5b565b80156106855780601f1061065c57610100808354040283529160200191610685565b820191905f5260205f20905b81548152906001019060200180831161066857829003601f168201915b5050505050815250509050805f015181602001518260400151836060015184608001518560a001519650965096509650965096505091939550919395565b5f604051905090565b5f80fd5b5f80fd5b5f80fd5b5f80fd5b5f601f19601f8301169050919050565b7f4e487b71000000000000000000000000000000000000000000000000000000005f52604160045260245ffd5b610722826106dc565b810181811067ffffffffffffffff82111715610741576107406106ec565b5b80604052505050565b5f6107536106c3565b905061075f8282610719565b919050565b5f67ffffffffffffffff82111561077e5761077d6106ec565b5b610787826106dc565b9050602081019050919050565b828183375f83830152505050565b5f6107b46107af84610764565b61074a565b9050828152602081018484840111156107d0576107cf6106d8565b5b6107db848285610794565b509392505050565b5f82601f8301126107f7576107f66106d4565b5b81356108078482602086016107a2565b91505092915050565b5f805f805f805f60e0888a03121561082b5761082a6106cc565b5b5f88013567ffffffffffffffff811115610848576108476106d0565b5b6108548a828b016107e3565b975050602088013567ffffffffffffffff811115610875576108746106d0565b5b6108818a828b016107e3565b965050604088013567ffffffffffffffff8111156108a2576108a16106d0565b5b6108ae8a828b016107e3565b955050606088013567ffffffffffffffff8111156108cf576108ce6106d0565b5b6108db8a828b016107e3565b945050608088013567ffffffffffffffff8111156108fc576108fb6106d0565b5b6109088a828b016107e3565b93505060a088013567ffffffffffffffff811115610929576109286106d0565b5b6109358a828b016107e3565b92505060c088013567ffffffffffffffff811115610956576109556106d0565b5b6109628a828b016107e3565b91505092959891949750929550565b5f81519050919050565b5f82825260208201905092915050565b5f819050602082019050919050565b5f81519050919050565b5f82825260208201905092915050565b5f5b838110156109d15780820151818401526020810190506109b6565b5f8484015250505050565b5f6109e68261099a565b6109f081856109a4565b9350610a008185602086016109b4565b610a09816106dc565b840191505092915050565b5f610a1f83836109dc565b905092915050565b5f602082019050919050565b5f610a3d82610971565b610a47818561097b565b935083602082028501610a598561098b565b805f5b85811015610a945784840389528151610a758582610a14565b9450610a8083610a27565b925060208a01995050600181019050610a5c565b50829750879550505050505092915050565b5f6020820190508181035f830152610abe8184610a33565b905092915050565b5f60208284031215610adb57610ada6106cc565b5b5f82013567ffffffffffffffff811115610af857610af76106d0565b5b610b04848285016107e3565b91505092915050565b5f82825260208201905092915050565b5f610b278261099a565b610b318185610b0d565b9350610b418185602086016109b4565b610b4a816106dc565b840191505092915050565b5f60c0820190508181035f830152610b6d8189610b1d565b90508181036020830152610b818188610b1d565b90508181036040830152610b958187610b1d565b90508181036060830152610ba98186610b1d565b90508181036080830152610bbd8185610b1d565b905081810360a0830152610bd18184610b1d565b9050979650505050505050565b5f81905092915050565b5f610bf28261099a565b610bfc8185610bde565b9350610c0c8185602086016109b4565b80840191505092915050565b5f610c238284610be8565b915081905092915050565b7f4e487b71000000000000000000000000000000000000000000000000000000005f52602260045260245ffd5b5f6002820490506001821680610c7257607f821691505b602082108103610c8557610c84610c2e565b5b50919050565b7f4c6f672077697468207468697320494420616c726561647920657869737473005f82015250565b5f610cbf601f83610b0d565b9150610cca82610c8b565b602082019050919050565b5f6020820190508181035f830152610cec81610cb3565b9050919050565b5f819050815f5260205f209050919050565b5f6020601f8301049050919050565b5f82821b905092915050565b5f60088302610d4f7fffffffffffffffffffffffffffffffffffffffffffffffffffffffffffffffff82610d14565b610d598683610d14565b95508019841693508086168417925050509392505050565b5f819050919050565b5f819050919050565b5f610d9d610d98610d9384610d71565b610d7a565b610d71565b9050919050565b5f819050919050565b610db683610d83565b610dca610dc282610da4565b848454610d20565b825550505050565b5f90565b610dde610dd2565b610de9818484610dad565b505050565b5b81811015610e0c57610e015f82610dd6565b600181019050610def565b5050565b601f821115610e5157610e2281610cf3565b610e2b84610d05565b81016020851015610e3a578190505b610e4e610e4685610d05565b830182610dee565b50505b505050565b5f82821c905092915050565b5f610e715f1984600802610e56565b1980831691505092915050565b5f610e898383610e62565b9150826002028217905092915050565b610ea28261099a565b67ffffffffffffffff811115610ebb57610eba6106ec565b5b610ec58254610c5b565b610ed0828285610e10565b5f60209050601f831160018114610f01575f8415610eef578287015190505b610ef98582610e7e565b865550610f60565b601f198416610f0f86610cf3565b5f5b82811015610f3657848901518255600182019150602085019450602081019050610f11565b86831015610f535784890151610f4f601f891682610e62565b8355505b6001600288020188555050505b50505050505056fea2646970667358221220cf98ed79b700dca19b2eab9a10c36d11af8cae8c2f628622fd3024ec20cdf9ec64736f6c63430008140033",
  "immutableReferences": {},
  "source": "// SPDX-License-Identifier: MIT\r\npragma solidity ^0.8.20;\r\n\r\ncontract GreenLedger {\r\n    struct Log {\r\n        string item;\r\n        string suggestion;\r\n        string action; // format: action + ' | ' + reason\r\n        string result;\r\n        string store;\r\n        string timestamp;\r\n    }\r\n\r\n    mapping(string => Log) private logs;\r\n    string[] private logIds;\r\n\r\n    function addLog(\r\n    string memory id,\r\n    string memory item,\r\n    string memory suggestion,\r\n    string memory action_with_reason,\r\n    string memory result,\r\n    string memory store,\r\n    string memory timestamp\r\n) public {\r\n    require(bytes(logs[id].item).length == 0, \"Log with this ID already exists\");\r\n    logs[id] = Log(item, suggestion, action_with_reason, result, store, timestamp);\r\n    logIds.push(id);\r\n}\r\n\r\n\r\n    function getLog(string memory id) public view returns (\r\n        string memory, string memory, string memory, string memory, string memory, string memory\r\n    ) {\r\n        Log memory log = logs[id];\r\n        return (\r\n            log.item,\r\n            log.suggestion,\r\n            log.action,\r\n            log.result,\r\n            log.store,\r\n            log.timestamp\r\n        );\r\n    }\r\n\r\n    function getAllLogIds() public view returns (string[] memory) {\r\n        return logIds;\r\n    }\r\n}\r\n",
  "sourcePath": "c:\\Users\\saket\\Desktop\\Sparkathon\\Blockchain\\contracts\\GreenLedger.sol",
  "compiler": {
    "name": "solc",
    "version": "0.8.20+commit.a1b79de6.Emscripten.clang"
  },
  "schemaVersion": "3.4.16",
  "updatedAt": "2025-07-13T12:10:19.268Z",
  "networkType": "ethereum",
  "devdoc": {
    "kind": "dev",
    "methods": {},
    "version": 1
  },
  "userdoc": {
    "kind": "user",
    "methods": {},
    "version": 1
  }
}