{
  "contractName": "GreenLedger",
  "abi": [
    {
      "inputs": [
        {
          "internalType": "string",
          "name": "id",
          "type": "string"
        },
        {
          "internalType": "string",
          "name": "item",
          "type": "string"
        },
        {
          "internalType": "string",
          "name": "suggestion",
          "type": "string"
        },
        {
          "internalType": "string",
          "name": "action_with_reason",
          "type": "string"
        },
        {
          "internalType": "string",
          "name": "result",
          "type": "string"
        },
        {
          "internalType": "string",
          "name": "store",
          "type": "string"
        },
        {
          "internalType": "string",
          "name": "timestamp",
          "type": "string"
        }
      ],
      "name": "addLog",
      "outputs": [],
      "stateMutability": "nonpayable",
      "type": "function"
    },
    {
      "inputs": [
        {
          "internalType": "string",
          "name": "id",
          "type": "string"
        }
      ],
      "name": "getLog",
      "outputs": [
        {
          "internalType": "string",
          "name": "",
          "type": "string"
        },
        {
          "internalType": "string",
          "name": "",
          "type": "string"
        },
        {
          "internalType": "string",
          "name": "",
          "type": "string"
        },
        {
          "internalType": "string",
          "name": "",
          "type": "string"
        },
        {
          "internalType": "string",
          "name": "",
          "type": "string"
        },
        {
          "internalType": "string",
          "name": "",
          "type": "string"
        }
      ],
      "stateMutability": "view",
      "type": "function",
      "constant": true
    }
  ],
  "bytecode": "0x608060405234801561000f575f80fd5b50610c778061001d5f395ff3fe608060405234801561000f575f80fd5b5060043610610034575f3560e01c80631553fdca14610038578063369c487b14610054575b5f80fd5b610052600480360381019061004d9190610674565b610089565b005b61006e600480360381019061006991906107d5565b610161565b60405161008096959493929190610896565b60405180910390f35b6040518060c00160405280878152602001868152602001858152602001848152602001838152602001828152505f886040516100c59190610959565b90815260200160405180910390205f820151815f0190816100e69190610b72565b5060208201518160010190816100fc9190610b72565b5060408201518160020190816101129190610b72565b5060608201518160030190816101289190610b72565b50608082015181600401908161013e9190610b72565b5060a08201518160050190816101549190610b72565b5090505050505050505050565b6060806060806060805f808860405161017a9190610959565b90815260200160405180910390206040518060c00160405290815f820180546101a29061099c565b80601f01602080910402602001604051908101604052809291908181526020018280546101ce9061099c565b80156102195780601f106101f057610100808354040283529160200191610219565b820191905f5260205f20905b8154815290600101906020018083116101fc57829003601f168201915b505050505081526020016001820180546102329061099c565b80601f016020809104026020016040519081016040528092919081815260200182805461025e9061099c565b80156102a95780601f10610280576101008083540402835291602001916102a9565b820191905f5260205f20905b81548152906001019060200180831161028c57829003601f168201915b505050505081526020016002820180546102c29061099c565b80601f01602080910402602001604051908101604052809291908181526020018280546102ee9061099c565b80156103395780601f1061031057610100808354040283529160200191610339565b820191905f5260205f20905b81548152906001019060200180831161031c57829003601f168201915b505050505081526020016003820180546103529061099c565b80601f016020809104026020016040519081016040528092919081815260200182805461037e9061099c565b80156103c95780601f106103a0576101008083540402835291602001916103c9565b820191905f5260205f20905b8154815290600101906020018083116103ac57829003601f168201915b505050505081526020016004820180546103e29061099c565b80601f016020809104026020016040519081016040528092919081815260200182805461040e9061099c565b80156104595780601f1061043057610100808354040283529160200191610459565b820191905f5260205f20905b81548152906001019060200180831161043c57829003601f168201915b505050505081526020016005820180546104729061099c565b80601f016020809104026020016040519081016040528092919081815260200182805461049e9061099c565b80156104e95780601f106104c0576101008083540402835291602001916104e9565b820191905f5260205f20905b8154815290600101906020018083116104cc57829003601f168201915b5050505050815250509050805f015181602001518260400151836060015184608001518560a001519650965096509650965096505091939550919395565b5f604051905090565b5f80fd5b5f80fd5b5f80fd5b5f80fd5b5f601f19601f8301169050919050565b7f4e487b71000000000000000000000000000000000000000000000000000000005f52604160045260245ffd5b61058682610540565b810181811067ffffffffffffffff821117156105a5576105a4610550565b5b80604052505050565b5f6105b7610527565b90506105c3828261057d565b919050565b5f67ffffffffffffffff8211156105e2576105e1610550565b5b6105eb82610540565b9050602081019050919050565b828183375f83830152505050565b5f610618610613846105c8565b6105ae565b9050828152602081018484840111156106345761063361053c565b5b61063f8482856105f8565b509392505050565b5f82601f83011261065b5761065a610538565b5b813561066b848260208601610606565b91505092915050565b5f805f805f805f60e0888a03121561068f5761068e610530565b5b5f88013567ffffffffffffffff8111156106ac576106ab610534565b5b6106b88a828b01610647565b975050602088013567ffffffffffffffff8111156106d9576106d8610534565b5b6106e58a828b01610647565b965050604088013567ffffffffffffffff81111561070657610705610534565b5b6107128a828b01610647565b955050606088013567ffffffffffffffff81111561073357610732610534565b5b61073f8a828b01610647565b945050608088013567ffffffffffffffff8111156107605761075f610534565b5b61076c8a828b01610647565b93505060a088013567ffffffffffffffff81111561078d5761078c610534565b5b6107998a828b01610647565b92505060c088013567ffffffffffffffff8111156107ba576107b9610534565b5b6107c68a828b01610647565b91505092959891949750929550565b5f602082840312156107ea576107e9610530565b5b5f82013567ffffffffffffffff81111561080757610806610534565b5b61081384828501610647565b91505092915050565b5f81519050919050565b5f82825260208201905092915050565b5f5b83811015610853578082015181840152602081019050610838565b5f8484015250505050565b5f6108688261081c565b6108728185610826565b9350610882818560208601610836565b61088b81610540565b840191505092915050565b5f60c0820190508181035f8301526108ae818961085e565b905081810360208301526108c2818861085e565b905081810360408301526108d6818761085e565b905081810360608301526108ea818661085e565b905081810360808301526108fe818561085e565b905081810360a0830152610912818461085e565b9050979650505050505050565b5f81905092915050565b5f6109338261081c565b61093d818561091f565b935061094d818560208601610836565b80840191505092915050565b5f6109648284610929565b915081905092915050565b7f4e487b71000000000000000000000000000000000000000000000000000000005f52602260045260245ffd5b5f60028204905060018216806109b357607f821691505b6020821081036109c6576109c561096f565b5b50919050565b5f819050815f5260205f209050919050565b5f6020601f8301049050919050565b5f82821b905092915050565b5f60088302610a287fffffffffffffffffffffffffffffffffffffffffffffffffffffffffffffffff826109ed565b610a3286836109ed565b95508019841693508086168417925050509392505050565b5f819050919050565b5f819050919050565b5f610a76610a71610a6c84610a4a565b610a53565b610a4a565b9050919050565b5f819050919050565b610a8f83610a5c565b610aa3610a9b82610a7d565b8484546109f9565b825550505050565b5f90565b610ab7610aab565b610ac2818484610a86565b505050565b5b81811015610ae557610ada5f82610aaf565b600181019050610ac8565b5050565b601f821115610b2a57610afb816109cc565b610b04846109de565b81016020851015610b13578190505b610b27610b1f856109de565b830182610ac7565b50505b505050565b5f82821c905092915050565b5f610b4a5f1984600802610b2f565b1980831691505092915050565b5f610b628383610b3b565b9150826002028217905092915050565b610b7b8261081c565b67ffffffffffffffff811115610b9457610b93610550565b5b610b9e825461099c565b610ba9828285610ae9565b5f60209050601f831160018114610bda575f8415610bc8578287015190505b610bd28582610b57565b865550610c39565b601f198416610be8866109cc565b5f5b82811015610c0f57848901518255600182019150602085019450602081019050610bea565b86831015610c2c5784890151610c28601f891682610b3b565b8355505b6001600288020188555050505b50505050505056fea264697066735822122041b6e8279bc71d2140ed3fa111129459f4d052b87d1ced14e9b56a19b1d1e49764736f6c63430008140033",
  "immutableReferences": {},
  "source": "// SPDX-License-Identifier: MIT\r\npragma solidity ^0.8.20;\r\n\r\ncontract GreenLedger {\r\n    struct Log {\r\n        string item;\r\n        string suggestion;\r\n        string action_with_reason;\r\n        string result;\r\n        string store;\r\n        string timestamp;\r\n    }\r\n\r\n    mapping(string => Log) private logs;\r\n\r\n    function addLog(string memory id, string memory item, string memory suggestion, string memory action_with_reason, string memory result, string memory store, string memory timestamp) public {\r\n        logs[id] = Log(item, suggestion, action_with_reason, result, store, timestamp);\r\n    }\r\n\r\n    function getLog(string memory id) public view returns (string memory, string memory, string memory, string memory, string memory, string memory) {\r\n        Log memory l = logs[id];\r\n        return (l.item, l.suggestion, l.action_with_reason, l.result, l.store, l.timestamp);\r\n    }\r\n}\r\n",
  "sourcePath": "C:\\Users\\saket\\Desktop\\Sparkathon\\contracts\\GreenLedger.sol",
  "compiler": {
    "name": "solc",
    "version": "0.8.20+commit.a1b79de6.Emscripten.clang"
  },
  "schemaVersion": "3.4.16",
  "updatedAt": "2025-07-10T14:31:51.784Z",
  "networkType": "ethereum",
  "devdoc": {
    "kind": "dev",
    "methods": {},
    "version": 1
  },
  "userdoc": {
    "kind": "user",
    "methods": {},
    "version": 1
  }
}